{
  "address": "0xCf7Ed3AccA5a467e9e704C703E8D87F634fB0Fc9",
  "abi": [
    {
      "inputs": [
        {
          "internalType": "address",
          "name": "_vrfCoordinator",
          "type": "address"
        },
        {
          "internalType": "uint256",
          "name": "entranceFee",
          "type": "uint256"
        },
        {
          "internalType": "bytes32",
          "name": "keyHash",
          "type": "bytes32"
        },
        {
          "internalType": "uint64",
          "name": "subId",
          "type": "uint64"
        },
        {
          "internalType": "uint32",
          "name": "callbackGasLimit",
          "type": "uint32"
        },
        {
          "internalType": "uint256",
          "name": "interval",
          "type": "uint256"
        }
      ],
      "stateMutability": "nonpayable",
      "type": "constructor"
    },
    {
      "inputs": [
        {
          "internalType": "address",
          "name": "have",
          "type": "address"
        },
        {
          "internalType": "address",
          "name": "want",
          "type": "address"
        }
      ],
      "name": "OnlyCoordinatorCanFulfill",
      "type": "error"
    },
    {
      "inputs": [],
      "name": "Raffle_NotEnoughEth",
      "type": "error"
    },
    {
      "inputs": [],
      "name": "Raffle_NotOpened",
      "type": "error"
    },
    {
      "inputs": [],
      "name": "Raffle_transferFailed",
      "type": "error"
    },
    {
      "inputs": [
        {
          "internalType": "uint256",
          "name": "contractBalance",
          "type": "uint256"
        },
        {
          "internalType": "uint256",
          "name": "noOfPlayers",
          "type": "uint256"
        },
        {
          "internalType": "uint256",
          "name": "raffleState",
          "type": "uint256"
        }
      ],
      "name": "Raffle_upKeepNotNeeded",
      "type": "error"
    },
    {
      "anonymous": false,
      "inputs": [
        {
          "indexed": true,
          "internalType": "address",
          "name": "player",
          "type": "address"
        }
      ],
      "name": "raffleEnter",
      "type": "event"
    },
    {
      "anonymous": false,
      "inputs": [
        {
          "indexed": true,
          "internalType": "uint256",
          "name": "requestId",
          "type": "uint256"
        }
      ],
      "name": "requestedRaffleWinner",
      "type": "event"
    },
    {
      "anonymous": false,
      "inputs": [
        {
          "indexed": true,
          "internalType": "address",
          "name": "winner",
          "type": "address"
        }
      ],
      "name": "winnerPicked",
      "type": "event"
    },
    {
      "inputs": [
        {
          "internalType": "bytes",
          "name": "",
          "type": "bytes"
        }
      ],
      "name": "checkUpkeep",
      "outputs": [
        {
          "internalType": "bool",
          "name": "upkeepNeeded",
          "type": "bool"
        },
        {
          "internalType": "bytes",
          "name": "",
          "type": "bytes"
        }
      ],
      "stateMutability": "view",
      "type": "function"
    },
    {
      "inputs": [],
      "name": "getEntranceFee",
      "outputs": [
        {
          "internalType": "uint256",
          "name": "",
          "type": "uint256"
        }
      ],
      "stateMutability": "view",
      "type": "function"
    },
    {
      "inputs": [],
      "name": "getInterval",
      "outputs": [
        {
          "internalType": "uint256",
          "name": "",
          "type": "uint256"
        }
      ],
      "stateMutability": "view",
      "type": "function"
    },
    {
      "inputs": [],
      "name": "getLastestTimeStamp",
      "outputs": [
        {
          "internalType": "uint256",
          "name": "",
          "type": "uint256"
        }
      ],
      "stateMutability": "view",
      "type": "function"
    },
    {
      "inputs": [],
      "name": "getNumWords",
      "outputs": [
        {
          "internalType": "uint256",
          "name": "",
          "type": "uint256"
        }
      ],
      "stateMutability": "pure",
      "type": "function"
    },
    {
      "inputs": [],
      "name": "getPlayer",
      "outputs": [
        {
          "internalType": "uint256",
          "name": "",
          "type": "uint256"
        }
      ],
      "stateMutability": "view",
      "type": "function"
    },
    {
      "inputs": [
        {
          "internalType": "uint256",
          "name": "index",
          "type": "uint256"
        }
      ],
      "name": "getPlayers",
      "outputs": [
        {
          "internalType": "address",
          "name": "",
          "type": "address"
        }
      ],
      "stateMutability": "view",
      "type": "function"
    },
    {
      "inputs": [],
      "name": "getRaffleState",
      "outputs": [
        {
          "internalType": "enum Raffle.Raffle_state",
          "name": "",
          "type": "uint8"
        }
      ],
      "stateMutability": "view",
      "type": "function"
    },
    {
      "inputs": [],
      "name": "getRecentRaffleWinner",
      "outputs": [
        {
          "internalType": "address",
          "name": "",
          "type": "address"
        }
      ],
      "stateMutability": "view",
      "type": "function"
    },
    {
      "inputs": [],
      "name": "getRequestConfirmations",
      "outputs": [
        {
          "internalType": "uint256",
          "name": "",
          "type": "uint256"
        }
      ],
      "stateMutability": "pure",
      "type": "function"
    },
    {
      "inputs": [],
      "name": "i_entranceFee",
      "outputs": [
        {
          "internalType": "uint256",
          "name": "",
          "type": "uint256"
        }
      ],
      "stateMutability": "view",
      "type": "function"
    },
    {
      "inputs": [],
      "name": "pay",
      "outputs": [],
      "stateMutability": "payable",
      "type": "function"
    },
    {
      "inputs": [
        {
          "internalType": "bytes",
          "name": "",
          "type": "bytes"
        }
      ],
      "name": "performUpkeep",
      "outputs": [],
      "stateMutability": "nonpayable",
      "type": "function"
    },
    {
      "inputs": [
        {
          "internalType": "uint256",
          "name": "requestId",
          "type": "uint256"
        },
        {
          "internalType": "uint256[]",
          "name": "randomWords",
          "type": "uint256[]"
        }
      ],
      "name": "rawFulfillRandomWords",
      "outputs": [],
      "stateMutability": "nonpayable",
      "type": "function"
    },
    {
      "inputs": [
        {
          "internalType": "uint256",
          "name": "",
          "type": "uint256"
        }
      ],
      "name": "s_players",
      "outputs": [
        {
          "internalType": "address payable",
          "name": "",
          "type": "address"
        }
      ],
      "stateMutability": "view",
      "type": "function"
    }
  ],
  "transactionHash": "0x00a05137b44697c6700630f69cd56ed36672623ed65af6c8e5926f126cf26853",
  "args": [
    "0x5FbDB2315678afecb367f032d93F642f64180aa3",
    "10000000000000000",
    "0x79d3d8832d904592c0bf9818b621522c988bb8b0c05cdc3b15aea1b6e8db0c15",
    "1",
    "500000",
    "30"
  ],
  "numDeployments": 1,
  "solcInputHash": "909759ddb3e1b3b47dcacb0abca89785",
  "bytecode": "0x6101606040523480156200001257600080fd5b506040516200193938038062001939833981810160405281019062000038919062000294565b858073ffffffffffffffffffffffffffffffffffffffff1660808173ffffffffffffffffffffffffffffffffffffffff1681525050508460a081815250508573ffffffffffffffffffffffffffffffffffffffff166101208173ffffffffffffffffffffffffffffffffffffffff16815250508360c081815250508267ffffffffffffffff1660e08167ffffffffffffffff16815250508163ffffffff166101008163ffffffff16815250506000600160006101000a81548160ff021916908360018111156200010d576200010c62000330565b5b0217905550426002819055508061014081815250505050505050506200035f565b600080fd5b600073ffffffffffffffffffffffffffffffffffffffff82169050919050565b6000620001608262000133565b9050919050565b620001728162000153565b81146200017e57600080fd5b50565b600081519050620001928162000167565b92915050565b6000819050919050565b620001ad8162000198565b8114620001b957600080fd5b50565b600081519050620001cd81620001a2565b92915050565b6000819050919050565b620001e881620001d3565b8114620001f457600080fd5b50565b6000815190506200020881620001dd565b92915050565b600067ffffffffffffffff82169050919050565b6200022d816200020e565b81146200023957600080fd5b50565b6000815190506200024d8162000222565b92915050565b600063ffffffff82169050919050565b6200026e8162000253565b81146200027a57600080fd5b50565b6000815190506200028e8162000263565b92915050565b60008060008060008060c08789031215620002b457620002b36200012e565b5b6000620002c489828a0162000181565b9650506020620002d789828a01620001bc565b9550506040620002ea89828a01620001f7565b9450506060620002fd89828a016200023c565b93505060806200031089828a016200027d565b92505060a06200032389828a01620001bc565b9150509295509295509295565b7f4e487b7100000000000000000000000000000000000000000000000000000000600052602160045260246000fd5b60805160a05160c05160e051610100516101205161014051611563620003d6600039600081816108c1015261095d015260006106dd0152600061075d0152600061073a015260006107190152600081816103b20152818161045c015261092d01526000818161055e01526105b201526115636000f3fe6080604052600436106100e85760003560e01c8063460e20491161008a5780637ea3e6c1116100595780637ea3e6c1146102c65780638ba05b0e146102f157806391ad27b41461031c578063ae771f6b14610347576100e8565b8063460e2049146101f557806353a2c19a146102325780635f1b0fd81461025d5780636e04ff0d14610288576100e8565b80631b9265b8116100c65780631b9265b81461016e5780631fe543e3146101785780633308f42d146101a15780634585e33b146101cc576100e8565b806307c487d5146100ed57806309bc33a714610118578063115cbaf514610143575b600080fd5b3480156100f957600080fd5b50610102610384565b60405161010f9190610cd9565b60405180910390f35b34801561012457600080fd5b5061012d6103ae565b60405161013a9190610d0d565b60405180910390f35b34801561014f57600080fd5b506101586103d6565b6040516101659190610d9f565b60405180910390f35b6101766103ed565b005b34801561018457600080fd5b5061019f600480360381019061019a9190610f53565b61055c565b005b3480156101ad57600080fd5b506101b661061c565b6040516101c39190610d0d565b60405180910390f35b3480156101d857600080fd5b506101f360048036038101906101ee919061100a565b610628565b005b34801561020157600080fd5b5061021c60048036038101906102179190611057565b61081b565b6040516102299190610cd9565b60405180910390f35b34801561023e57600080fd5b50610247610862565b6040516102549190610d0d565b60405180910390f35b34801561026957600080fd5b50610272610871565b60405161027f9190610d0d565b60405180910390f35b34801561029457600080fd5b506102af60048036038101906102aa9190611139565b61087e565b6040516102bd92919061121c565b60405180910390f35b3480156102d257600080fd5b506102db61092b565b6040516102e89190610d0d565b60405180910390f35b3480156102fd57600080fd5b5061030661094f565b6040516103139190610d0d565b60405180910390f35b34801561032857600080fd5b50610331610959565b60405161033e9190610d0d565b60405180910390f35b34801561035357600080fd5b5061036e60048036038101906103699190611057565b610981565b60405161037b919061126d565b60405180910390f35b6000600360009054906101000a900473ffffffffffffffffffffffffffffffffffffffff16905090565b60007f0000000000000000000000000000000000000000000000000000000000000000905090565b6000600160009054906101000a900460ff16905090565b6000600181111561040157610400610d28565b5b600160009054906101000a900460ff16600181111561042357610422610d28565b5b1461045a576040517f621618da00000000000000000000000000000000000000000000000000000000815260040160405180910390fd5b7f00000000000000000000000000000000000000000000000000000000000000003410156104b4576040517f2a7e0d6700000000000000000000000000000000000000000000000000000000815260040160405180910390fd5b6000339080600181540180825580915050600190039060005260206000200160009091909190916101000a81548173ffffffffffffffffffffffffffffffffffffffff021916908373ffffffffffffffffffffffffffffffffffffffff1602179055503373ffffffffffffffffffffffffffffffffffffffff167f742d070bf0f3edace132a9da8ba725e8cf99c478869cee7f673ed6085e2f8e6460405160405180910390a2565b7f000000000000000000000000000000000000000000000000000000000000000073ffffffffffffffffffffffffffffffffffffffff163373ffffffffffffffffffffffffffffffffffffffff161461060e57337f00000000000000000000000000000000000000000000000000000000000000006040517f1cf993f4000000000000000000000000000000000000000000000000000000008152600401610605929190611288565b60405180910390fd5b61061882826109c0565b5050565b60008080549050905090565b60006106426040518060200160405280600081525061087e565b509050806106b15747600080549050600160009054906101000a900460ff16600181111561067357610672610d28565b5b6040517fd96b52f90000000000000000000000000000000000000000000000000000000081526004016106a8939291906112b1565b60405180910390fd5b60018060006101000a81548160ff021916908360018111156106d6576106d5610d28565b5b02179055507f000000000000000000000000000000000000000000000000000000000000000073ffffffffffffffffffffffffffffffffffffffff16635d3b1d307f00000000000000000000000000000000000000000000000000000000000000007f000000000000000000000000000000000000000000000000000000000000000060037f000000000000000000000000000000000000000000000000000000000000000060016040518663ffffffff1660e01b815260040161079e959493929190611360565b6020604051808303816000875af11580156107bd573d6000803e3d6000fd5b505050506040513d601f19601f820116820180604052508101906107e191906113c8565b6004819055506004547fe0abfa81226f1e2ce09ba287cbb4c241e89b2b891a389274bb7d9c46e344daf060405160405180910390a2505050565b60008082815481106108305761082f6113f5565b5b9060005260206000200160009054906101000a900473ffffffffffffffffffffffffffffffffffffffff169050919050565b6000600163ffffffff16905090565b6000600361ffff16905090565b600060606000600160009054906101000a900460ff1660018111156108a6576108a5610d28565b5b600060018111156108ba576108b9610d28565b5b14905060007f0000000000000000000000000000000000000000000000000000000000000000600254426108ee9190611453565b1190506000806000805490501190506000804711905083801561090e5750825b80156109175750815b80156109205750805b955050505050915091565b7f000000000000000000000000000000000000000000000000000000000000000081565b6000600254905090565b60007f0000000000000000000000000000000000000000000000000000000000000000905090565b6000818154811061099157600080fd5b906000526020600020016000915054906101000a900473ffffffffffffffffffffffffffffffffffffffff1681565b60008080549050826000815181106109db576109da6113f5565b5b60200260200101516109ed91906114b6565b90506000808281548110610a0457610a036113f5565b5b9060005260206000200160009054906101000a900473ffffffffffffffffffffffffffffffffffffffff16905080600360006101000a81548173ffffffffffffffffffffffffffffffffffffffff021916908373ffffffffffffffffffffffffffffffffffffffff16021790555060008173ffffffffffffffffffffffffffffffffffffffff1647604051610a9890611518565b60006040518083038185875af1925050503d8060008114610ad5576040519150601f19603f3d011682016040523d82523d6000602084013e610ada565b606091505b5050905080610b15576040517f2e26eabf00000000000000000000000000000000000000000000000000000000815260040160405180910390fd5b6000600160006101000a81548160ff02191690836001811115610b3b57610b3a610d28565b5b0217905550600067ffffffffffffffff811115610b5b57610b5a610e10565b5b604051908082528060200260200182016040528015610b895781602001602082028036833780820191505090505b5060009080519060200190610b9f929190610bf1565b50426002819055508173ffffffffffffffffffffffffffffffffffffffff167f794919b0f484b8e90b1b817ac7f880f846fbd8a9813dee2a378e820db094e3d160405160405180910390a25050505050565b828054828255906000526020600020908101928215610c6a579160200282015b82811115610c695782518260006101000a81548173ffffffffffffffffffffffffffffffffffffffff021916908373ffffffffffffffffffffffffffffffffffffffff16021790555091602001919060010190610c11565b5b509050610c779190610c7b565b5090565b5b80821115610c94576000816000905550600101610c7c565b5090565b600073ffffffffffffffffffffffffffffffffffffffff82169050919050565b6000610cc382610c98565b9050919050565b610cd381610cb8565b82525050565b6000602082019050610cee6000830184610cca565b92915050565b6000819050919050565b610d0781610cf4565b82525050565b6000602082019050610d226000830184610cfe565b92915050565b7f4e487b7100000000000000000000000000000000000000000000000000000000600052602160045260246000fd5b60028110610d6857610d67610d28565b5b50565b6000819050610d7982610d57565b919050565b6000610d8982610d6b565b9050919050565b610d9981610d7e565b82525050565b6000602082019050610db46000830184610d90565b92915050565b6000604051905090565b600080fd5b600080fd5b610dd781610cf4565b8114610de257600080fd5b50565b600081359050610df481610dce565b92915050565b600080fd5b6000601f19601f8301169050919050565b7f4e487b7100000000000000000000000000000000000000000000000000000000600052604160045260246000fd5b610e4882610dff565b810181811067ffffffffffffffff82111715610e6757610e66610e10565b5b80604052505050565b6000610e7a610dba565b9050610e868282610e3f565b919050565b600067ffffffffffffffff821115610ea657610ea5610e10565b5b602082029050602081019050919050565b600080fd5b6000610ecf610eca84610e8b565b610e70565b90508083825260208201905060208402830185811115610ef257610ef1610eb7565b5b835b81811015610f1b5780610f078882610de5565b845260208401935050602081019050610ef4565b5050509392505050565b600082601f830112610f3a57610f39610dfa565b5b8135610f4a848260208601610ebc565b91505092915050565b60008060408385031215610f6a57610f69610dc4565b5b6000610f7885828601610de5565b925050602083013567ffffffffffffffff811115610f9957610f98610dc9565b5b610fa585828601610f25565b9150509250929050565b600080fd5b60008083601f840112610fca57610fc9610dfa565b5b8235905067ffffffffffffffff811115610fe757610fe6610faf565b5b60208301915083600182028301111561100357611002610eb7565b5b9250929050565b6000806020838503121561102157611020610dc4565b5b600083013567ffffffffffffffff81111561103f5761103e610dc9565b5b61104b85828601610fb4565b92509250509250929050565b60006020828403121561106d5761106c610dc4565b5b600061107b84828501610de5565b91505092915050565b600080fd5b600067ffffffffffffffff8211156110a4576110a3610e10565b5b6110ad82610dff565b9050602081019050919050565b82818337600083830152505050565b60006110dc6110d784611089565b610e70565b9050828152602081018484840111156110f8576110f7611084565b5b6111038482856110ba565b509392505050565b600082601f8301126111205761111f610dfa565b5b81356111308482602086016110c9565b91505092915050565b60006020828403121561114f5761114e610dc4565b5b600082013567ffffffffffffffff81111561116d5761116c610dc9565b5b6111798482850161110b565b91505092915050565b60008115159050919050565b61119781611182565b82525050565b600081519050919050565b600082825260208201905092915050565b60005b838110156111d75780820151818401526020810190506111bc565b60008484015250505050565b60006111ee8261119d565b6111f881856111a8565b93506112088185602086016111b9565b61121181610dff565b840191505092915050565b6000604082019050611231600083018561118e565b818103602083015261124381846111e3565b90509392505050565b600061125782610c98565b9050919050565b6112678161124c565b82525050565b6000602082019050611282600083018461125e565b92915050565b600060408201905061129d6000830185610cca565b6112aa6020830184610cca565b9392505050565b60006060820190506112c66000830186610cfe565b6112d36020830185610cfe565b6112e06040830184610cfe565b949350505050565b6000819050919050565b6112fb816112e8565b82525050565b600067ffffffffffffffff82169050919050565b61131e81611301565b82525050565b600061ffff82169050919050565b61133b81611324565b82525050565b600063ffffffff82169050919050565b61135a81611341565b82525050565b600060a08201905061137560008301886112f2565b6113826020830187611315565b61138f6040830186611332565b61139c6060830185611351565b6113a96080830184611351565b9695505050505050565b6000815190506113c281610dce565b92915050565b6000602082840312156113de576113dd610dc4565b5b60006113ec848285016113b3565b91505092915050565b7f4e487b7100000000000000000000000000000000000000000000000000000000600052603260045260246000fd5b7f4e487b7100000000000000000000000000000000000000000000000000000000600052601160045260246000fd5b600061145e82610cf4565b915061146983610cf4565b925082820390508181111561148157611480611424565b5b92915050565b7f4e487b7100000000000000000000000000000000000000000000000000000000600052601260045260246000fd5b60006114c182610cf4565b91506114cc83610cf4565b9250826114dc576114db611487565b5b828206905092915050565b600081905092915050565b50565b60006115026000836114e7565b915061150d826114f2565b600082019050919050565b6000611523826114f5565b915081905091905056fea2646970667358221220803a84c2848ab820f13675dd1e542a736009146a3c8b82b81c1a603fcc994a1164736f6c63430008110033",
  "devdoc": {
    "kind": "dev",
    "methods": {},
    "version": 1
  },
  "userdoc": {
    "kind": "user",
    "methods": {},
    "version": 1
  },
  "storageLayout": {
    "storage": [
      {
        "astId": 1203,
        "contract": "contracts/raffle.sol:Raffle",
        "label": "s_players",
        "offset": 0,
        "slot": "0",
        "type": "t_array(t_address_payable)dyn_storage"
      },
      {
        "astId": 1221,
        "contract": "contracts/raffle.sol:Raffle",
        "label": "s_raffleState",
        "offset": 0,
        "slot": "1",
        "type": "t_enum(Raffle_state)1198"
      },
      {
        "astId": 1223,
        "contract": "contracts/raffle.sol:Raffle",
        "label": "s_lastTimeStamp",
        "offset": 0,
        "slot": "2",
        "type": "t_uint256"
      },
      {
        "astId": 1227,
        "contract": "contracts/raffle.sol:Raffle",
        "label": "recentRaffleWinner",
        "offset": 0,
        "slot": "3",
        "type": "t_address"
      },
      {
        "astId": 1229,
        "contract": "contracts/raffle.sol:Raffle",
        "label": "request_id",
        "offset": 0,
        "slot": "4",
        "type": "t_uint256"
      }
    ],
    "types": {
      "t_address": {
        "encoding": "inplace",
        "label": "address",
        "numberOfBytes": "20"
      },
      "t_address_payable": {
        "encoding": "inplace",
        "label": "address payable",
        "numberOfBytes": "20"
      },
      "t_array(t_address_payable)dyn_storage": {
        "base": "t_address_payable",
        "encoding": "dynamic_array",
        "label": "address payable[]",
        "numberOfBytes": "32"
      },
      "t_enum(Raffle_state)1198": {
        "encoding": "inplace",
        "label": "enum Raffle.Raffle_state",
        "numberOfBytes": "1"
      },
      "t_uint256": {
        "encoding": "inplace",
        "label": "uint256",
        "numberOfBytes": "32"
      }
    }
  }
}